:1000000000000420190200000102000003020000A9
:1000100005020000070200000902000000000000C5
:100020000000000000000000000000000B020000C3
:100030000D020000000000000F020000110200008D
:100040007913000013020000E11300001302000006
:1000500013020000130200001302000085240000B8
:10006000130200001302000013020000130200003C
:10007000130200001302000013020000130200002C
:1000800013020000F94000001302000013020000F8
:10009000130200001302000013020000130200000C
:1000A00013020000130200001302000013020000FC
:1000B0001302000013020000000000000000000016
:1000C00013020000130200001302000013020000DC
:1000D0006D1600001302000013020000130200005E
:1000E00013020000130200001302000000000000D1
:1000F00000000000130200000000000013020000D6
:1001000000000000000000000000000000000000EF
:1001100000000000000000000000000000000000DF
:1001200000000000000000000000000000000000CF
:1001300000000000000000000000000000000000BF
:1001400000000000000000000000000000000000AF
:10015000000000000000000000000000000000009F
:10016000000000000000000000000000000000008F
:10017000000000000000000000000000000000007F
:10018000000000000000000000000000000000006F
:10019000000000000000000000000000000000005F
:1001A000000000000000000000000000000000004F
:1001B000000000000000000000000000000000003F
:1001C000000000000000000000000000000000002F
:1001D000000000000000000000000000000000001F
:1001E000000000000000000000000000000000000F
:1001F00000000000000000000000000000000000FF
:10020000FEE7FEE7FEE7FEE7FEE7FEE7FEE7FEE7C6
:10021000FEE7FEE700F002B8FFF7FCBF0F484FF023
:100220000701884385460E4880470E48016841F41F
:1002300070010160BFF34F8FBFF36F8F00F01AB8EA
:1002400009480A490A4A884207D0521A05D0037859
:1002500001300B700131013AF9D1704700000420E0
:10026000750F000088ED00E0146900000000002018
:10027000000000203A493B480A1A02D00722914365
:100280008D46394939480A1A06D00722914381F32D
:100290000988022282F3148835483649364A00F02C
:1002A00041F836483649374A00F03CF83648374975
:1002B000374A00F037F837483749384A00F032F803
:1002C00037483849384A00F02DF838483849394A13
:1002D00000F028F838483949394A00F023F83948FD
:1002E0003949002200F036F838483949002200F038
:1002F00031F838483849091A06F0D5F9374A904795
:1003000025482649884205D00268043003B4904746
:1003100003BCF7E700208646EC4600200021304A67
:100320009047FEE7884214D0521A12D003460B437E
:1003300013430324234206D1036804300B600431C5
:10034000043AF9D17047037801300B700131013A5A
:10035000F9D17047884202D002700130FAE7704745
:100360000000042000E0032000000420000004201E
:10037000987A0000000000207C000020E4030000C8
:10038000E403000086680000987A00000000002066
:1003900000000020146900001469000014690000C6
:1003A0001469000014690000146900001469000059
:1003B00014690000957A0000147B00007C00002086
:1003C0007C0000207C000020440A0020440A002019
:1003D000440A0020440A0020442A00204102000070
:0403E000BD09000053
:1003E40000B585B00190019B002B0AD0074B43F068
:1003F40001030393019B9B010293039B029898477B
:1004040000E000BF05B05DF804FB00BFA06B000076
:1004140000B583B00190019B1B68184600F0F0F80A
:100424000346002B04D10B494FF4F67003F070FE21
:10043400019B1B681F2B02D84FF0A04306E0019BD1
:100444001B6803F01F02019B1A60034B184603B09C
:100454005DF804FB146900000003005000B585B08A
:100464000190084611461A4603468DF803300B46A0
:100474008DF8023013468DF8013001AB1846FFF7B2
:10048400C7FF03909DF803209DF802305B001A43D8
:100494009DF801309B001A439DF818301B0242EA74
:1004A40003019DF81C301B04019A1943039B02F5B8
:1004B400E07243F8221000BF05B05DF804FB00B5FC
:1004C40085B00390002301930023009300230122AD
:1004D40001210398FFF7C2FF00BF05B05DF804FBDC
:1004E40000B585B003900B468DF80B309DF80B30AA
:1004F4000022019200220092002200210398FFF7BB
:10050400ADFF00BF05B05DF804FB00B585B00190F8
:1005140001AB1846FFF77CFF0390019B012202FA0E
:1005240003F31946039800F057F800BF05B05DF8CF
:1005340004FB00B585B0019001AB1846FFF768FFD6
:100544000390019B012202FA03F31946039800F079
:100554004DF800BF05B05DF804FB00B585B001900F
:1005640001AB1846FFF754FF0390039BD3F80435FF
:100574000293029BDA43019B012101FA03F31A401F
:10058400039BC3F80825019B01229A40029B1A4051
:10059400039BC3F80C2500BF05B05DF804FB00B550
:1005A40085B0019001AB1846FFF732FF0390039822
:1005B40000F00AF80246019B22FA03F303F0010358
:1005C400184605B05DF804FB82B00190019BD3F896
:1005D4001035184602B0704782B001900091019B1B
:1005E400009AC3F8082500BF02B0704782B001909A
:1005F4000091019B009AC3F80C2500BF02B070471C
:1006040084B00190019B5B09029300230393029B36
:10061400002B03D0029B012B04D007E04FF0FF33E3
:10062400039303E04FF6FF73039300BF019B03F0B2
:100634001F030193039A019B22FA03F303F00103BE
:10064400002B14BF01230023DBB2184604B070470B
:1006540000B583B00190019B002B0AD04FF47A704F
:10066400FFF7BEFE019B013B0193019B002BF5D1DB
:1006740000E000BF03B05DF804FB86B00190009178
:1006840001230593019B1B88ADF80E3001230493CD
:100694000FE0049B5B00019A1344B3F90030BDF9E9
:1006A4000E209A4202D1059B01330593049B01332A
:1006B4000493049A009B9A42EBD3059B062B04D91E
:1006C400059B082B01D8012300E0002303F001035C
:1006D400DBB2184606B0704700B587B00390039BA1
:1006E4001B78002B7CD1484B1B78002B78D0474BD0
:1006F4001B680133454A1360039B5A68444B1B68CB
:10070400B2F90010434A22F81310039B5A68404B75
:100714001B68B2F90210404A22F813103C4B1B68C4
:1007240001333B4A13603D4A3D4BD31ADB081B049B
:1007340043F00300354B1A68039B5B68B3F9003040
:100744001946039B5B680233B3F9003000930B46F0
:10075400344905F00CFA2E4B1B680E2B50D90F218F
:100764002C48FFF78AFF03468DF817300F212A48DB
:10077400FFF783FF03468DF816309DF81730002BE2
:1007840003D19DF81630002B11D00D20FFF7D1FEB8
:10079400224A234BD31ADB081B0443F003032249E8
:1007A400184605F0B1F9184B00221A7028E01E22F1
:1007B4000021184805F0CAFF1E220021164805F042
:1007C400C5FF134B00221A60144A154BD31ADB08D9
:1007D4001B0443F003031549184605F095F90FE08F
:1007E400039B1B78022B0BD10C4A0D4BD31ADB084D
:1007F4001B0443F003030E49184605F085F9FFE78F
:1008040000BF07B05DF804FB000000208400002056
:10081400C800002088000020A8000020B86800005C
:1008240088680000386900006C690000B469000041
:10083400046A000000B589B04FF48041002004F040
:1008440095FE0790079B002B0CD04F4A4F4BD31AB1
:10085400DB081B0443F00103079A4D49184605F0D1
:1008640061F98EE004F004FE474A484BD31ADB08D2
:100874001B0443F003034749184605F045F90620D5
:1008840001F030FA0790079B002B0CD03E4A3F4BF7
:10089400D31ADB081B0443F00103079A3E491846A8
:1008A40005F040F96DE001AB00221A605A609A60CD
:1008B400DA601A615A6102238DF8083007238DF833
:1008C4000D3002238DF8143008238DF819300123DC
:1008D4008DF81B3001AB0221184601F037FA07905E
:1008E400079B002B0CD0284A284BD31ADB081B0487
:1008F40043F00103079A2949184605F013F940E02B
:10090400274B00220121032001F0F6FA0790079BF0
:10091400002B0CD01C4A1D4BD31ADB081B0443F0DC
:100924000103079A1F49184605F0FCF829E0022143
:100934001D4801F031FB0790079B002B0CD0124A95
:10094400124BD31ADB081B0443F00103079A17491F
:10095400184605F0E7F814E00221154801F01CFBE5
:100964000790079B002B0CD0074A084BD31ADB08CF
:100974001B0443F00103079A0E49184605F0D2F808
:1009840000BF09B05DF804FBB86800008868000087
:10099400206A0000346A0000606A0000786A00007F
:1009A400DD060000946A00007C000020B06A0000AC
:1009B40080000020C86A000000B589B01820FFF745
:1009C4007EFD0D20FFF77BFD1D20FFF778FD0D2038
:1009D400FFF7AFFD1D20FFF798FDFFF72BFF002366
:1009E400079300230693002305936A4B0493022381
:1009F40003930A230293079B01330793069B013356
:100A04000693059B0133059303210D20FFF768FD31
:100A14000D20FFF7C4FD0346002B14BF0123002360
:100A24008DF807300D20FFF74AFD5B4B1B78002B38
:100A340003D00D20FFF769FD02E00D20FFF779FDDB
:100A44009DF8073083F00103DBB2002B52D0534BE7
:100A54001B78002B4ED06420FFF7FAFD03210D20F4
:100A6400FFF73EFD0D20FFF79AFD0346002B33D11F
:100A7400494B1B78002B14BF01230023DBB283F006
:100A84000103DBB203F00103DAB2434B1A700D2009
:100A9400FFF715FD404B1B78002B0ED00D20FFF700
:100AA40034FD3F4A3F4BD31ADB081B0443F00303D6
:100AB4003D49184605F028F81CE00D20FFF739FDE4
:100AC400374A384BD31ADB081B0443F00303374976
:100AD400184605F019F80DE00D20FFF7F0FC2E4B39
:100AE4001B78002B03D00D20FFF70FFD02E00D2033
:100AF400FFF71FFD294A9DF807301370069A039BE0
:100B04009A4204D31820FFF728FD00230693284BAC
:100B14001B78002B17D0059A029B9A4213D301F03D
:100B2400B9FA0090009B002B0BD01D4A1D4BD31A21
:100B3400DB081B0443F00103009A1E49184604F025
:100B4400F1FF00230593079A049B9A4218D10D20C4
:100B5400FFF7DBFC104B01221A701D20FFF7E9FCA4
:100B6400134B00221A70049B07930D4A0D4BD31AA2
:100B7400DB081B0443F003030F49184604F0C4FFC9
:100B840000BF05F033F80346002BFAD16420FFF7C9
:100B94005FFD30E720BF0200CC00002001000020F0
:100BA400B868000088680000E06A0000106B00006C
:100BB400000000203C6B0000586B0000BFF34F8F17
:100BC40000BF064BDB6803F4E0620449044B1343A3
:100BD400CB60BFF34F8F00BF00BFFDE700ED00E027
:100BE4000400FA0582B0164B1B680193154B1B6871
:100BF4000093019B082B1FD1009B052B1AD801A23F
:100C040052F823F0210C0000250C0000290C0000F0
:100C14002D0C0000310C0000350C000001230CE009
:100C240001230AE0012308E0012306E0012304E094
:100C3400012302E0012300E00023184602B07047BC
:100C4400300100103401001082B0164B1B68019370
:100C5400154B1B680093019B082B1FD1009B052B90
:100C64001AD801A252F823F0850C0000890C000068
:100C74008D0C0000910C0000950C0000990C0000F4
:100C840001230CE001230AE0012308E0012306E02C
:100C9400012304E0012302E0012300E000231846BD
:100CA40002B07047300100103401001082B0164BBE
:100CB4001B680193154B1B680093019B082B1FD1E4
:100CC400009B052B1AD801A252F823F0E90C00006E
:100CD400ED0C0000F10C0000F50C0000F90C000014
:100CE400FD0C000001230CE000230AE0002308E0CF
:100CF400002306E0002304E0002302E0002300E0D8
:100D04000023184602B0704730010010340100106F
:100D140082B0164B1B680193154B1B680093019B13
:100D2400082B1FD1009B052B1AD801A252F823F0DF
:100D34004D0D0000510D0000550D0000590D00002F
:100D44005D0D0000610D000001230CE000230AE0AA
:100D5400002308E0002306E0002304E0002302E06F
:100D6400002300E00023184602B070473001001051
:100D74003401001082B0164B1B680193154B1B689D
:100D84000093019B082B1FD1009B052B1AD801A2AD
:100D940052F823F0B10D0000B50D0000B90D0000AC
:100DA400BD0D0000C10D0000C50D000001230CE0C5
:100DB40000230AE0002308E0002306E0002304E007
:100DC400002302E0002300E00023184602B070472D
:100DD400300100103401001082B0164B1B680193DF
:100DE400154B1B680093019B082B1FD1009B052BFF
:100DF4001AD801A252F823F0150E0000190E0000B3
:100E04001D0E0000210E0000250E0000290E00001A
:100E140001230CE000230AE0002308E0002306E09D
:100E2400002304E0002302E0002300E0002318462E
:100E340002B07047300100103401001082B0164B2C
:100E44001B680193154B1B680093019B082B1FD152
:100E5400009B052B1AD801A252F823F0790E00004A
:100E64007D0E0000810E0000850E0000890E00003A
:100E74008D0E000001230CE001230AE0012308E0A9
:100E8400012306E0012304E0012302E0012300E042
:100E94000023184602B070473001001034010010DE
:100EA40082B0164B1B680193154B1B680093019B82
:100EB400082B1FD1009B052B1AD801A252F823F04E
:100EC400DD0E0000E10E0000E50E0000E90E00005A
:100ED400ED0E0000F10E000000230CE000230AE0F8
:100EE400002308E0002306E0012304E0012302E0DC
:100EF400012300E00023184602B0704730010010BF
:100F04003401001008B5FFF7CBFF0346002B07D0D0
:100F14004FF010234FF08042D3F80832C2F858350E
:100F240000BF08BD00BF044BD3F80034002BFAD037
:100F340000BF00BF704700BF00E0014000B583B0B0
:100F44000190054A019BC2F80435FFF7EBFF00BF8F
:100F540003B05DF804FB00BF00E00140024B034A0C
:100F64001A6000BF704700BF040000200090D00347
:100F740008B5FFF737FE0346002B0ED04FF0804331
:100F84000022C3F80C214FF080430022C3F8102143
:100F94004FF080430022C3F83825FFF755FE03467F
:100FA400002B76D04FF08053734AD3F80434C2F840
:100FB40020354FF08053704AD3F80834C2F82435F2
:100FC4004FF080536C4AD3F80C34C2F828354FF0F4
:100FD4008053694AD3F81034C2F82C354FF080534B
:100FE400654AD3F81434C2F830354FF08053624A5E
:100FF400D3F81834C2F834354FF080535E4AD3F82E
:101004001C34C2F840354FF080535B4AD3F8203487
:10101400C2F844354FF08053574AD3F82434C2F809
:1010240048354FF08053544AD3F82834C2F84C352D
:101034004FF08053504AD3F82C34C2F850354FF057
:1010440080534D4AD3F83034C2F854354FF08053AE
:10105400494AD3F83434C2F860354FF08053464AD5
:10106400D3F83834C2F864354FF08053424AD3F889
:101074003C34C2F868354FF080533F4AD3F84034CB
:10108400C2F86C354FF080533B4AD3F84434C2F86D
:101094007035FFF70BFE0346002B02D0374B384A5E
:1010A4001A60FFF735FE0346002B03D0354BFB22B5
:1010B400C3F81825FFF75EFE0346002B0AD0324B17
:1010C4001B6823F00F02314B1B6803F00F032E49FA
:1010D40013430B60FFF780FE0346002B03D02C4B19
:1010E4004FF400721A60FFF7A9FE0346002B0DD0DF
:1010F4004FF08043D3F8003403F00103002B05D0F4
:101104004FF080436FF00102C3F80024214BD3F861
:101114008830204A43F47003C2F88830BFF34F8FFD
:1011240000BFBFF36F8F00BFFFF7ECFE4FF010233B
:10113400D3F80032002B05DB4FF01023D3F8043230
:10114400002B15DA0120FFF7F9FE4FF010231222CD
:10115400C3F80022FFF7E6FE4FF010231222C3F873
:101164000422FFF7DFFE0020FFF7E8FEFFF726FD6D
:10117400FFF7F4FE00BF08BD00C000408C560040DD
:101184004881030000F00040E40E004058020010C3
:101194004096024000ED00E000B589B00190009156
:1011A400009B0793019B1B788DF80C30019B5B68B7
:1011B4000493019B9B68DBB28DF81430019BDB68C0
:1011C4000693074A079B52F823300649079A51F8B9
:1011D400221003AA1046984700BF09B05DF804FB2B
:1011E400D0000020D800002000B589B00190009103
:1011F400009B0793019B1B788DF80C30019B5B6867
:101204000493019B9B68DBB28DF81430019BDB686F
:101214000693074A079B52F823300649079A51F868
:10122400221003AA1046984700BF09B05DF804FBDA
:10123400D0000020D800002030B58FB00390029178
:101244000192039B1B780C932C490C9B019A41F847
:101254002320029B1A692A490C9B41F823200C9BEA
:10126400012B07D1029B5B7F002B03D125497620FC
:1012740002F04EFF029B5B7F1946234A0C9B1344EA
:101284000A461A70029B04AC1D460FCD0FC495E8A4
:101294000F0084E80F000C9B089300230D93039B1D
:1012A4001B781A46184B9B5C002B0DD0039B181D12
:1012B400019B002B01D0154A00E0002204AB194623
:1012C40002F034FB0D9014E0039B1B781A460E4B7E
:1012D4009B5C002B0DD1039B03F10C00019B002BA5
:1012E40001D00B4A00E0002204AB194601F0A2FC35
:1012F4000D900D9B18460FB030BD00BFD0000020EC
:10130400D8000020E06B0000E00000209D110000E8
:10131400ED11000082B001904FF08042019BC2F8B1
:10132400083300BF02B0704784B00346ADF80630FE
:10133400BDF8063003F1804300221A60BDF8063080
:1013440003F180431B680393039B00BF04B0704701
:1013540082B00346ADF80630BDF8063003F1804391
:101364001B68002B14BF01230023DBB2184602B014
:101374007047000008B54FF48070FFF7E9FF03469B
:10138400002B14D04FF48070FFF7CEFF0120FFF73D
:10139400C1FF114B5B7983F00103DBB2002B06D054
:1013A4000D4B01225A710C4B1B68002098474FF4D7
:1013B4008270FFF7CDFF0346002B0AD04FF48270F2
:1013C400FFF7B2FF0220FFF7A5FF034B1B680120C4
:1013D400984700BF08BD00BFE400002008B5064BD5
:1013E4001B68002B03D10549512002F091FE024BEA
:1013F4001B68984708BD00BFEC000020706C00001B
:1014040082B00190019B044A934201D1034B00E056
:101414000023184602B0704700200040EC00002072
:1014240000B587B001900091019B002B03D11849AE
:10143400772002F06DFE0198FFF7E2FF0590059B0F
:10144400002B1ED000238DF81330002002F00AFE7A
:10145400059B1B79002B03D001238DF8133005E085
:10146400059B009A1A60059B01221A71002002F064
:101474000DFE9DF81330002B03D011230393039B1F
:1014840002E000230393039B184607B05DF804FBB6
:10149400706C000000B585B00190019B002B03D156
:1014A4000A499B2002F034FE0198FFF7A9FF03903C
:1014B400039B002B05D0039B00221A60039B002290
:1014C4001A7100BF05B05DF804FB00BF706C00002A
:1014D40082B001900091019B009AC3F8082300BFD9
:1014E40002B0704782B001900091019BD3F80423AD
:1014F400009B1340184602B0704782B001900B461F
:10150400ADF80230BDF80230019A13441B68184646
:1015140002B0704784B001900B46ADF80230BDF8BC
:101524000230019A134400221A60BDF80230019A75
:1015340013441B680393039B00BF04B0704782B03D
:1015440001900091019B009AC3F8482300BF02B0A8
:101554007047000000B589B00390029101924FF4E6
:10156400803306934FF4A073ADF81E300023059327
:1015740030E006990398FFF7B5FF0346002B1ED011
:10158400BDF81E3019460398FFF7B7FF0346002B3A
:1015940015D006990398FFF7D2FF06990398FFF731
:1015A40097FFBDF81E3019460398FFF7B3FF2D4A85
:1015B400029B52F82330059AD2B210469847069BF4
:1015C4005B000693BDF81E300433ADF81E30059B56
:1015D40001330593059A019B9A42CAD34FF4807351
:1015E400ADF81E3001210398FFF77CFF0346002B62
:1015F40014D0BDF81E3019460398FFF77EFF03464A
:10160400002B0BD0BDF81E3019460398FFF782FF5C
:10161400144A029B52F82330042098474FF48273F3
:10162400ADF81E3002210398FFF75CFF0346002B40
:1016340014D0BDF81E3019460398FFF75EFF034629
:10164400002B0BD0BDF81E3019460398FFF762FF3C
:10165400044A029B52F823300520984700BF09B082
:101664005DF804FBF400002008B5042200210248C0
:10167400FFF770FF00BF08BD0040024082B0034680
:101684008DF807309DF90730002B0CDB9DF80730EF
:1016940003F01F0205499DF907305B09012000FA98
:1016A40002F241F8232000BF02B0704700E100E0DD
:1016B40082B0034600918DF807309DF90730002B66
:1016C4000ADB009BDAB20C499DF907305201D2B211
:1016D4000B4483F800230BE0009BDAB207499DF822
:1016E400073003F00F03043B5201D2B20B441A76C5
:1016F40000BF02B0704700BF00E100E000ED00E071
:1017040082B00190019B03F06043B3F1005F0CBF12
:1017140001230023DBB2184602B0704700B583B042
:1017240003460A468DF8073013468DF806309DF8B7
:101734000630072B03D908496B2002F0E9FC9DF819
:1017440006209DF9073011461846FFF7B1FF00BF88
:1017540003B05DF804FB00BF186D000000B583B052
:1017640003468DF807309DF907301846FFF786FFCA
:1017740000BF03B05DF804FB82B003468DF8073068
:101784009DF8073003F1804303F5E04301221A601A
:1017940000BF02B0704782B00346ADF80630BDF812
:1017A400063003F1804303F5E0431B68002B14BFAC
:1017B40001230023DBB2184602B0704784B003460D
:1017C400ADF80630BDF8063003F1804303F5E0437D
:1017D40000221A60BDF8063003F1804303F5E043AC
:1017E4001B680393039B00BF04B0704782B0034699
:1017F4000A468DF8073013468DF806309DF80630FA
:10180400012B07D19DF807309BB223339BB2DB0039
:101814009BB207E09DF807309BB2DB009BB203F557
:101824008E739BB2184602B07047000082B0034624
:101834008DF807300B468DF8063013468DF80530C9
:101844000A499DF807309DF8052051331B010B44CC
:1018540004331A6005499DF807309DF8062051337A
:101864001B010B441A6000BF02B0704700700040B7
:1018740082B00190034A019BC2F8003300BF02B05A
:10188400704700BF00700040024B0122C3F80025DE
:1018940000BF704700700040024B0022C3F80025CF
:1018A40000BF70470070004082B001900091054A6B
:1018B400019BC2F82C36034A009BC2F8303600BFA5
:1018C40002B0704700700040024BD3F834369BB22C
:1018D400184670470070004082B003468DF8073008
:1018E400034A9DF80730C2F8F03500BF02B07047D4
:1018F40000700040024BD3F8F035DBB21846704755
:101904000070004082B003468DF807309DF8073020
:10191400012202FA03F3184602B0704782B003466C
:101924008DF80730034A9DF80730C2F8F43500BF3C
:1019340002B0704700700040024BD3F8F435DBB2BC
:101944001846704700700040064BD3F8F83503F48E
:101954008053B3F5805F0CBF01230023DBB218462C
:10196400704700BF0070004000B583B0034600918B
:101974008DF80730009B1B7803F00302009B5B7813
:101984001B0103F030031A43009B9B781B0203F4F2
:10199400E0631A43009BDB781B0303F480531A4370
:1019A400009B1B791B0403F4E0231A43009B5B791F
:1019B4001B0503F4801342EA0301009B9B791B0679
:1019C40003F080720A489DF807300A431B01034460
:1019D40003F5A3631A60009BD979009B1A7A9DF8DA
:1019E40007301846FFF722FF00BF03B05DF804FB81
:1019F4000070004082B003460A468DF80730134653
:101A04008DF806300C4A9DF807301B01134403F58A
:101A1400A3631B6823F080719DF806301A060648FC
:101A24009DF807300A431B01034403F5A3631A60BE
:101A340000BF02B0704700BF0070004000B597B00F
:101A4400002315931CE0344A159B1B01134403F532
:101A5400A3631A68159B9B0058336B4443F8382CD6
:101A64002D4A159B1B01134403F21C531A68159B42
:101A74009B0058336B4443F8582C159B0133159342
:101A8400159B072BDFD9FFF735FF03468DF84F3041
:101A9400224B1B681293224B1B681193214B1B682A
:101AA4001093214B00221A601F4B01221A6000235D
:101AB40014931CE01849149B9B0058336B4453F84F
:101AC400382C149B1B010B4403F5A3631A601249C1
:101AD400149B9B0058336B4453F8582C149B1B01E4
:101AE4000B4403F21C531A60149B01331493149B8C
:101AF400072BDFD9094A129B1360094A119B136013
:101B0400084A109B13609DF84F301846FFF7E4FE17
:101B140000BF17B05DF804FB007000404076004041
:101B24004476004048760040FC7F004000B585B014
:101B340001900091019B002B04D11B4940F2E3204A
:101B440002F0E6FA019BFF2B04D917494FF43970D0
:101B540002F0DEFA00238DF80F300123029316E021
:101B6400019A029B1340002B0ED0104B93F82330A4
:101B74001A46029B1340002B01D107230FE09DF866
:101B84000F3001338DF80F30029B5B000293029BF0
:101B9400FF2BE5D9009B9DF80F201A7000231846EF
:101BA40005B05DF804FB00BF686D0000F80000207C
:101BB400094B93F82230012B09D0074B93F82230BC
:101BC400042B04D0044B93F82230022B01D10023C0
:101BD40000E0012318467047F800002000B585B0E6
:101BE4000190084611461A4603468DF803300B4609
:101BF4008DF8023013468DF80130FFF71FFF384B84
:101C0400002283F82620364B002283F82720344B09
:101C140000225A60324B00229A60314A069B1360BC
:101C2400019BDAB22E4B83F824202D4B00221A821A
:101C34009DF803301846FFF74FFE9DF80230184612
:101C4400FFF76CFE069B002B03D02320FFF710FE4A
:101C540002E00020FFF70CFE0023039337E0019A13
:101C6400039B22FA03F303F00103002B12D01C4A56
:101C7400039B134412331B788DF80A30184A039BD4
:101C840013441A331B788DF809309DF801308DF810
:101C94000B3008E000238DF80A3000238DF809305A
:101CA40000238DF80B30039BDBB29DF80B2011460B
:101CB4001846FFF79FFE039BDBB29DF809209DF8B1
:101CC4000A101846FFF7B2FD039B01330393039BED
:101CD400072BC4D900BF00BF05B05DF804FB00BFEB
:101CE400F800002000B585B003468DF80730164B88
:101CF40093F82230002B03D008230393039B1EE0A8
:101D0400114B012283F822204FF48070FFF756FD17
:101D14004FF48A70FFF752FD4FF48270FFF74EFDC7
:101D24000020FFF7A5FD0720FFF718FD9DF80730F9
:101D340019460720FFF7F2FC00230393039B184680
:101D440005B05DF804FB00BFF800002000B585B0C5
:101D540001900091664B93F82230002B04D1654921
:101D640040F2693002F0D4F9009B082B04D9614990
:101D740040F26A3002F0CCF9FFF71AFF0346002B59
:101D840001D01123AFE05A4B002283F82320002313
:101D94008DF80F3010E09DF80F30554A134400229F
:101DA4009A749DF80F30524A134400229A769DF893
:101DB4000F3001338DF80F309DF80F30072BEAD91F
:101DC40000238DF80F3087E0494B93F823301946F0
:101DD4009DF80F2013465B0013449B001A46019B99
:101DE4001344DB7A21FA03F303F00103002B01D03F
:101DF400072378E09DF80F2013465B0013449B00F3
:101E04001A46019B1344D87A9DF80F2013465B00B1
:101E140013449B001A46019B13441946FFF7A4FD83
:101E24009DF80F2013465B0013449B001A46019B48
:101E340013445B7A002B04D12E494FF4617002F0F5
:101E440067F99DF80F2013465B0013449B001A4664
:101E5400019B99189DF80F2013465B0013449B00C7
:101E64001A46019B1344DB7A18464A7A204B0344F2
:101E74009A749DF80F2013465B0013449B001A4686
:101E8400019B99189DF80F2013465B0013449B0097
:101E94001A46019B1344DB7A18468A7A144B03448E
:101EA4009A76134B93F823109DF80F2013465B008A
:101EB40013449B001A46019B1344DB7A1A46012300
:101EC4009340DBB20B43DAB2094B83F823209DF82D
:101ED4000F3001338DF80F309DF80F30009A9A427D
:101EE4003FF672AF0023184605B05DF804FB00BF4F
:101EF400F8000020686D000000B58BB005900393D6
:101F04000B468DF8133013468DF81230204B93F89E
:101F14002230002B04D11F4940F2923002F0F8F82D
:101F2400FFF746FE0346002B01D011232CE00DF1F0
:101F34001F0319460598FFF7F9FD0890089B002B2D
:101F440001D0089B20E09DF81230002B03D1002320
:101F54008DF8273002E001238DF827309DF8270003
:101F64009DF812209DF81310039B009303460598D7
:101F7400FFF734FE9DF81F20054B83F82520044B02
:101F8400022283F82220002318460BB05DF804FBDC
:101F9400F8000020686D000000B583B001900B4686
:101FA400ADF80230394B93F82230002B04D1384974
:101FB40040F2F93002F0ACF8344B9B68002B01D0AE
:101FC40085235EE00198FFF79BFB034683F0010342
:101FD400DBB2002B01D0102353E0BDF802302B4AB2
:101FE40092F8252093FBF2F101FB02F29B1A002BDD
:101FF40007D1BDF90230002B03DBBDF80230002B02
:1020040001D109233DE0214B93F82230062B1BD04C
:10201400062B33DC022B05D0022B2FDB043B012BD8
:102024002CD817E0194B93F825301A46BDF8023026
:10203400934201D0092324E0144ABDF8023093816D
:10204400124A019B53601BE0BDF802301946019807
:10205400FFF72AFC0D4B5B68002B07D00B4ABDF839
:102064000230D381094A019B936009E0074ABDF815
:1020740002309381054A019B536001E0082300E08C
:102084000023184603B05DF804FB00BFF8000020ED
:10209400686D000000B585B07D4B93F82230002BAD
:1020A40004D17C4940F2344002F032F8784B93F882
:1020B4002230012B04D1774940F2354002F028F850
:1020C400734B5B68002B01D10423DDE000230393F1
:1020D4006F4B93F82230022B02D0042B3DD0CFE07B
:1020E400FFF7D2FB6A4B5B68694A9289114618462E
:1020F400FFF7DAFB664B1B68002B07D0644B032207
:1021040083F822200020FFF737FBBCE00020FFF714
:1021140033FB00BF4FF48070FFF73DFB034683F0B1
:102124000103DBB2002BF5D14FF48070FFF746FBBF
:102134000420FFF721FB00BF4FF48270FFF72BFB55
:10214400034683F00103DBB2002BF5D14FF4827018
:10215400FFF734FBFFF7A0FB95E0FFF795FB4C4B33
:102164001B68002B0FD04A4B052283F82220484BD2
:102174005B68474A928911461846FFF795FB002091
:10218400FFF7FAFA7FE0424B5A68414B1B8A5B0027
:1021940013443F4A92F8252011461846FFF784FB62
:1021A4000020FFF7E9FA00BF4FF48070FFF7F3FA5D
:1021B400034683F00103DBB2002BF5D14FF48070AA
:1021C400FFF7FCFA324B93F82930002B23D0FFF7AA
:1021D400B3FB03461846FFF795FB019000230293D7
:1021E40014E04FF48470FFF7E9FA0420FFF7C4FA0F
:1021F40000BF4FF48470FFF7CEFA034683F0010367
:10220400DBB2002BF5D1029B01330293029A019BAE
:102214009A42E6D302E00420FFF7AEFA00BF4FF47F
:102224008270FFF7B8FA034683F00103DBB2002B98
:10223400F5D14FF48270FFF7C1FA154B1B8A144A8B
:1022440092F8252013449AB2114B1A82104B1A8A21
:102254000F4B9B899A4202D2112303930DE00C4B3E
:1022640000221A820A4B9B68094A5360084BDA8998
:10227400074B9A81064B00229A60FFF70DFB02E0A0
:102284000823039300BF039B184605B05DF804FBC5
:10229400F8000020686D000000B585B0214B93F86C
:1022A4002230062B25D0062B34DC032B2ED0052B15
:1022B40030D104238DF804301A4B1B6801AA104650
:1022C4009847FFF741FB0346002B02D00420FFF799
:1022D40053FA144B062283F82220124B9B68002BDE
:1022E40007D0104B9B680F4AD28911461846FFF756
:1022F400DBFA0C4B9B68002B0ED103238DF80430C2
:10230400084B1B6801AA1046984705E00420FFF714
:1023140033FA02E000BF00E000BF00BF05B05DF883
:1023240004FB00BFF800002000B585B000238DF841
:102334000430234B5B680293214B9B89ADF80C302E
:102344001F4B1B6801AA104698471D4B93F8223077
:10235400032B02D0062B07D02DE0FFF79DFA184B74
:10236400022283F8222026E0154B9B68144A53600E
:10237400134BDA89124B9A81114B00229A60104B4D
:102384005B68002B08D00E4B93F82830002B11D03B
:102394000020FFF7F1F90DE0FFF77EFA084B042265
:1023A40083F8222005238DF80430054B1B6801AA0D
:1023B4001046984700BF00BF05B05DF804FB00BF9E
:1023C400F800002000B58BB003460A468DF80730AC
:1023D40013468DF8063048E09DF807300793079BB5
:1023E40093FAA3F30693069B0893089B002B01D151
:1023F400202303E0089BB3FA83F3DBB28DF8273084
:102404009DF82730012202FA03F3DBB2DB43DAB290
:102414009DF8073013408DF807309DF806209DF88D
:10242400273011461846FFF7E1F90346ADF824308A
:10243400BDF824301846FFF7AEF90346002B14D03C
:10244400BDF824301846FFF7B9F901238DF80C3094
:102454009DF827308DF810309DF806308DF8113036
:10246400064B1B6803AA104698479DF80730002BBB
:10247400B2D100BF00BF0BB05DF804FBF800002030
:1024840000B585B04FF48070FFF785F90346002B43
:1024940005D04FF48070FFF791F9FFF7FDFE4FF47C
:1024A4008A70FFF778F90346002B0CD04FF48A703A
:1024B400FFF784F9FFF708FA03461A461E4B9A8180
:1024C4001D4B00229A604FF48270FFF764F90346B3
:1024D400002B05D04FF48270FFF770F9FFF724FF4B
:1024E400154B93F8263000211846FFF76BFF124B6B
:1024F40093F8273001211846FFF764FF4FF48870E2
:10250400FFF749F90346002B11D04FF48870FFF709
:1025140055F9FFF7C1F9084B012283F82220022361
:102524008DF80430044B1B6801AA1046984700BF7D
:1025340005B05DF804FB00BFF800002082B003463C
:102544008DF807309DF90730002B0CDB9DF8073020
:1025540003F01F0205499DF907305B09012000FAC9
:1025640002F241F8232000BF02B0704700E100E00E
:1025740082B003468DF807309DF90730002B13DB3A
:102584009DF8073003F01F0209499DF907305B09E4
:10259400012000FA02F2203341F82320BFF34F8FC9
:1025A40000BFBFF36F8F00BF00BF02B0704700BF12
:1025B40000E100E082B0034600918DF807309DF9F8
:1025C4000730002B0ADB009BDAB20C499DF9073077
:1025D4005201D2B20B4483F800230BE0009BDAB221
:1025E40007499DF8073003F00F03043B5201D2B2B0
:1025F4000B441A7600BF02B0704700BF00E100E050
:1026040000ED00E082B00190019B1B0B5BB2184609
:1026140002B0704700B583B003460A468DF8073010
:1026240013468DF806309DF80630072B03D9084968
:102634006B2001F06DFD9DF806209DF907301146D1
:102644001846FFF7B7FF00BF03B05DF804FB00BFF7
:10265400986D000000B583B003468DF807309DF9EE
:1026640007301846FFF76AFF00BF03B05DF804FBAC
:1026740000B583B003468DF807309DF9073018463E
:10268400FFF776FF00BF03B05DF804FB84B0019050
:102694000B46ADF80230BDF80230019A1344002213
:1026A4001A60BDF80230019A13441B680393039B1C
:1026B40000BF04B0704782B001900B46ADF8023001
:1026C400BDF80230019A13441B68002B14BF012388
:1026D4000023DBB2184602B0704782B0019000912B
:1026E400019B009AC3F8042300BF02B0704782B074
:1026F40001900091019BD3F80423009B1340002B0D
:1027040014BF01230023DBB2184602B0704782B025
:1027140001900091019B009AC3F8082300BF02B006
:10272400704784B00190019BD3F880340393019BDC
:10273400039AC3F88024039B184604B0704782B000
:102744000190019B0422C3F8002500BF02B070472A
:1027540082B00190019B0022C3F8002500BF02B0A3
:10276400704784B0039002910192039B019AC3F8CD
:102774001425039B029AC3F80C2500BF04B07047CC
:1027840000B583B001904FF0FF324FF0FF31019854
:10279400FFF7E7FF00BF03B05DF804FB82B00190D0
:1027A400019BD3F80C35184602B0704782B00190F3
:1027B400019BD3F81435184602B0704782B00190DB
:1027C400019BD3F80835184602B0704782B00190D7
:1027D400019BD3F81035184602B0704784B00390BB
:1027E40002910192039B029AC3F80825039B019A64
:1027F400C3F8102500BF04B0704700B583B0019042
:102804004FF0FF324FF0FF310198FFF7E7FF00BFB1
:1028140003B05DF804FB82B00190019BD3F8183536
:10282400DBB2184602B0704782B001900B468DF8B7
:1028340003309DF80320019BC3F81C2500BF02B0A0
:10284400704782B001900B468DF803309DF8033039
:10285400019A134401221A6000BF02B0704782B08B
:1028640001900B468DF8033013468DF802309DF825
:1028740003209DF802301343DBB21A46019BC3F8D0
:102884006C2500BF02B0704782B001900091019B9B
:10289400009AC3F8242500BF02B0704700B583B086
:1028A4000190019B1B68184600F0A4F80346002B16
:1028B40004D10B494FF4F67001F02AFC019B1B680C
:1028C4001F2B02D84FF0A04306E0019B1B6803F0C6
:1028D4001F02019B1A60034B184603B05DF804FB0A
:1028E400BC6D00000003005000B585B0019008469F
:1028F40011461A4603468DF803300B468DF8023014
:1029040013468DF8013001AB1846FFF7C7FF03905B
:102914009DF803209DF802305B001A439DF80130B6
:102924009B001A439DF818301B0242EA03019DF8EC
:102934001C301B04019A1943039B02F5E07243F80F
:10294400221000BF05B05DF804FB00B585B003900C
:102954000023019300230093002301220121039803
:10296400FFF7C2FF00BF05B05DF804FB00B585B0FA
:1029740003900B468DF80B309DF80B30002201922A
:1029840000220092002200210398FFF7ADFF00BF50
:1029940005B05DF804FB00B585B0039000230193F6
:1029A400002300930023012200210398FFF79CFFDA
:1029B40000BF05B05DF804FB00B585B0019001AB24
:1029C4001846FFF76BFF0390019B012202FA03F301
:1029D4001946039800F004F800BF05B05DF804FB45
:1029E40082B001900091019B009AC3F8082500BFB2
:1029F40002B0704784B00190019B5B0902930023ED
:102A04000393029B002B03D0029B012B04D007E00D
:102A14004FF0FF33039303E04FF6FF73039300BFBC
:102A2400019B03F01F030193039A019B22FA03F312
:102A340003F00103002B14BF01230023DBB218466B
:102A440004B0704700B583B001900091009B1B68EF
:102A5400B3F1FF3F09D0009B1B681846FFF7ACFF9A
:102A6400009B1B681846FFF770FF009B5B68B3F17F
:102A7400FF3F05D0009B5B6800211846FFF776FFF7
:102A8400019B1A68009B9B6919461046FFF7FCFEE0
:102A9400019B1868009B597D009B1B7D1A46FFF71C
:102AA400DEFE019B1868009B1968009B5B681A4650
:102AB400FFF757FE009B1B7D012B22D1009B9B68D7
:102AC400B3F1FF3F05D0009B9B6800211846FFF738
:102AD4004DFF009BDB68B3F1FF3F09D0009BDB682F
:102AE4001846FFF769FF009BDB681846FFF72DFFC8
:102AF400019B1868009BD968009B9B681A46FFF7E6
:102B04006DFE00BF03B05DF804FB000000B583B0A8
:102B140001900B468DF80330019B1B684FF48E71B6
:102B24001846FFF7B3FD019B1B684FF4A2711846CA
:102B3400FFF7ACFD019B1B680E491846FFF7CDFD5E
:102B4400019B1B681846FFF75DFD03461A469DF876
:102B5400033019461046FFF75DFD019B1B681846BC
:102B6400FFF750FD03461846FFF774FD00BF03B09E
:102B74005DF804FB8000020000B583B00190019B66
:102B84001B6808491846FFF7C2FD019B1B681846DD
:102B9400FFF738FD03461846FFF76AFD00BF03B090
:102BA4005DF804FB8402020000B587B00190019B2C
:102BB4001B681846FFF7F2FD0590019B1B68184639
:102BC400FFF7F4FD0490019B1B681846FFF7F6FD20
:102BD4000390019B1B681846FFF7F8FD0290019BC8
:102BE4001B681846FFF7CCFD019B1B681846FFF7CE
:102BF40004FE059BB3F1FF3F02D00598FFF7CBFE1F
:102C0400049BB3F1FF3F02D00498FFF7C4FE029B7C
:102C1400B3F1FF3F02D00298FFF7BDFE039BB3F16F
:102C2400FF3F02D00398FFF7B6FE00BF07B05DF880
:102C340004FB000000B587B0039002910192029B4F
:102C4400002B03D12D49AA2001F062FA039B1B79C2
:102C54001A462C2302FB03F3294A1344049300234A
:102C64000593049B93F82A30002B03D00823059383
:102C7400059B3EE0039B1A68039B1B791946214B75
:102C840053F8213019461046FEF7CAFB0346002BC1
:102C940003D011230593059B2BE002990398FFF7BA
:102CA400D1FE049B019A5A60029B1A69049B1A6024
:102CB400049B5B68002B05D0029B1B7F194603987D
:102CC400FFF724FF039B1B681846FFF738FD049B9E
:102CD40000229A61049B0022DA61049B002283F89B
:102CE4002920049B00225A61049B012283F82A2094
:102CF400059B184607B05DF804FB00BFE86D0000B3
:102D040024010020146E000000B585B00190019BE1
:102D14001B791A462C2302FB03F3114A1344039331
:102D2400019B1B681846FFF713FD039B5B68002B90
:102D340002D00198FFF720FF0198FFF735FF019BB0
:102D44001B681846FEF7A6FB039B002283F82A2083
:102D5400039B00225A6000BF05B05DF804FB00BF6E
:102D64002401002000B585B0019000914FF48E71CC
:102D74000198FFF78BFC009B9A68009B1B6A134425
:102D84001B788DF80F30009B1B6A5A1C009B1A623B
:102D94009DF80F3019460198FFF746FD00BF05B0B6
:102DA4005DF804FB00B585B001900091009B5B6960
:102DB400039316E0009B93F82830DBB2002B01D07C
:102DC400002314E04FF48E710198FFF774FC03465E
:102DD40083F00103DBB2002BECD100990198FFF7DB
:102DE400C1FF009B1B6A039A9A42EBD80123184641
:102DF40005B05DF804FB000000B587B003900291B4
:102E04000192039B1B791A462C2302FB03F33C4AD1
:102E140013440493049B93F82A30012B04D03949BA
:102E24004FF48C7001F074F9029B002B04D13549E6
:102E340040F2191001F06CF9019B002B04D13149C7
:102E44004FF48D7001F064F9039800F05DF80346C7
:102E5400002B03D011230593059B4CE0049B019A9E
:102E64005A61049B029A9A60049B00221A62049B92
:102E7400002283F8282000230593039B1B684FF44A
:102E84008E711846FFF702FC039B1B680821184645
:102E9400FFF7D7FC039B1B6804991846FFF762FFF2
:102EA400049B5B68002B25D1039B1B68049918467F
:102EB400FFF778FF034683F00103DBB2002B02D057
:102EC4000F23059313E000BF039B1B684FF48E711F
:102ED4001846FFF7F0FB034683F00103DBB2002B37
:102EE400F2D1039B1B680C211846FFF7AAFC049B34
:102EF40000225A61059B184607B05DF804FB00BF29
:102F040024010020E86D000082B00190019B1B7930
:102F14001946074A2C2301FB03F3134414331B689B
:102F2400002B14BF01230023DBB2184602B0704704
:102F34002401002010B582B001900091009B9B6990
:102F4400002B08D14FF484710198FFF79FFB01987F
:102F5400FFF761FC13E04FF484710198FFF796FBCF
:102F6400009BDA68009B5B6AD4180198FFF753FC56
:102F740003462370009B5B6A5A1C009B5A6202B092
:102F840010BD00B589B003900291019201238DF820
:102F94001030029B0693019B0593039B5B68039A85
:102FA400116804AA1046984700BF09B05DF804FBF5
:102FB40000B587B00190009100238DF80830009B84
:102FC4000493019B9B680393019B00225A61019B1C
:102FD4005B68019A116802AA1046984700BF07B0BF
:102FE4005DF804FB00B58BB0019000914FF40071C3
:102FF4000198FFF77CFB0346002B39D04FF4927104
:103004000198FFF758FB0346002B31D04FF492711F
:103014000198FFF73BFB4FF401710198FFF777FB31
:10302400009B93F8293083F00103DBB2002B03D01B
:1030340004210198FFF705FC02238DF80C30019858
:10304400FFF76FFB03460693009B9B690593009B68
:10305400DB680493009B00229A61009B0022DA61E2
:10306400009B5B68009A116803AA1046984752E0D7
:1030740004210198FFF73BFB0346002B4BD04FF490
:1030840084710198FFF717FB0346002B43D0009986
:103094000198FFF74FFF009B9A69009B5B6A9A4275
:1030A40039D1009BDB69002B19D0009BDB680993A5
:1030B400009B5B6A0893009BDA69009B9A61009B02
:1030C4001A69009BDA60009B0022DA61009B0022EF
:1030D4005A62099A08990098FFF753FF1BE0009B76
:1030E40093F8293083F00103DBB2002B03D00421D1
:1030F4000198FFF7A6FB4FF401710198FFF707FB56
:10310400009B00229A61009B596A009BDB681A4667
:103114000098FFF736FF4FF48E710198FFF7CBFA52
:103124000346002B24D0009B5B690793009B1B6A1A
:10313400079A9A420DD9009B93F82830DBB283F0AA
:103144000103DBB2002B04D000990198FFF70AFEBB
:103154000EE04FF48E710198FFF798FA009B5B69BB
:10316400002B05D0009B5B6919460098FFF720FFF0
:103174004FF4A2710198FFF79EFA0346002B1CD06E
:103184004FF4A2710198FFF781FA009B93F829305C
:10319400002B03D000210198FFF753FB009B9B6990
:1031A400002B0AD0009B00229A61009B596A009B65
:1031B400DB681A460098FFF7E4FE00BF0BB05DF829
:1031C40004FB000008B503490348FFF70BFF00BFE9
:1031D40008BD00BF240100200020004082B0034647
:1031E4008DF807309DF90730002B0CDB9DF8073074
:1031F40003F01F0205499DF907305B09012000FA1D
:1032040002F241F8232000BF02B0704700E100E061
:1032140082B003468DF807309DF90730002B13DB8D
:103224009DF8073003F01F0209499DF907305B0937
:10323400012000FA02F2203341F82320BFF34F8F1C
:1032440000BFBFF36F8F00BF00BF02B0704700BF65
:1032540000E100E082B0034600918DF807309DF94B
:103264000730002B0ADB009BDAB20C499DF90730CA
:103274005201D2B20B4483F800230BE0009BDAB274
:1032840007499DF8073003F00F03043B5201D2B203
:103294000B441A7600BF02B0704700BF00E100E0A3
:1032A40000ED00E082B00190019B03F06043B3F1B4
:1032B400005F0CBF01230023DBB2184602B0704745
:1032C40082B00190019B1B0B5BB2184602B07047A1
:1032D40000B583B003460A468DF8073013468DF8CF
:1032E40006309DF80630072B03D908496B2000F0FF
:1032F4000FFF9DF806209DF9073011461846FFF789
:10330400A9FF00BF03B05DF804FB00BF186E000006
:1033140000B583B003468DF807309DF90730184691
:10332400FFF75CFF00BF03B05DF804FB00B583B09A
:1033340003468DF807309DF907301846FFF768FFFC
:1033440000BF03B05DF804FB84B001900B46ADF8F8
:103354000230BDF80230019A134400221A60BDF80D
:103364000230019A13441B680393039B00BF04B00B
:10337400704782B001900B46ADF80230BDF80230C0
:10338400019A13441B68002B14BF01230023DBB2F2
:10339400184602B0704782B001900091019BD3F8A7
:1033A4000022009BDB431A40019BC3F8002200BFAC
:1033B40002B0704782B001900091019B009AC3F85B
:1033C400042300BF02B0704782B001900091019BBA
:1033D400009AC3F8082300BF02B0704784B001907C
:1033E400019BD3F880340393019B039AC3F8802490
:1033F400039B184604B0704782B00190019B0822D9
:10340400C3F8002500BF02B0704782B00190019B51
:103414000022C3F8002500BF02B0704784B00390B7
:1034240002910192039B029AC3F80C25039B019A13
:10343400C3F8142500BF04B0704700B583B00190F1
:103444004FF0FF324FF0FF310198FFF7E7FF00BF65
:1034540003B05DF804FB82B00190019BD3F80C35F6
:10346400184602B0704782B00190019BD3F814351E
:10347400184602B0704782B00190019BD3F808351A
:10348400184602B0704782B00190019BD3F8103502
:10349400184602B0704784B0039002910192039BD6
:1034A400029AC3F80825039B019AC3F8102500BFAC
:1034B40004B0704700B583B001904FF0FF324FF075
:1034C400FF310198FFF7E7FF00BF03B05DF804FB8D
:1034D40082B001900B468DF803309DF80330019AB9
:1034E400134401221A6000BF02B0704782B00190F9
:1034F4000B468DF8033013468DF802309DF80320F7
:103504009DF802301343DBB21A46019BC3F86C25C5
:1035140000BF02B0704782B001900091019B009AF5
:10352400C3F8242500BF02B0704784B00390029111
:103534000192029A039BC3F84425039B019AC3F8A2
:10354400482500BF04B0704782B00190019BD3F8B6
:103554004C35184602B0704782B00190019BD3F8F5
:103564003C35184602B0704700B583B00190019B0A
:103574001B68184600F0A4F80346002B04D10B493D
:103584004FF4F67000F0C4FD019B1B681F2B02D89A
:103594004FF0A04306E0019B1B6803F01F02019B50
:1035A4001A60034B184603B05DF804FB3C6E000040
:1035B4000003005000B585B00190084611461A4634
:1035C40003468DF803300B468DF8023013468DF810
:1035D400013001AB1846FFF7C7FF03909DF80320A5
:1035E4009DF802305B001A439DF801309B001A439A
:1035F4009DF818301B0242EA03019DF81C301B049D
:10360400019A1943039B02F5E07243F8221000BFAC
:1036140005B05DF804FB00B585B003900023019369
:10362400002300930023012201210398FFF7C2FF26
:1036340000BF05B05DF804FB00B585B003900B46F0
:103644008DF80B309DF80B3000220192002200927D
:10365400002200210398FFF7ADFF00BF05B05DF81D
:1036640004FB00B585B0039000230193002300936D
:103674000023012200210398FFF79CFF00BF05B03F
:103684005DF804FB00B585B0019001AB1846FFF767
:103694006BFF0390019B012202FA03F3194603987E
:1036A40000F004F800BF05B05DF804FB82B001909F
:1036B4000091019B009AC3F8082500BF02B070472F
:1036C40084B00190019B5B09029300230393029B46
:1036D400002B03D0029B012B04D007E04FF0FF33F3
:1036E400039303E04FF6FF73039300BF019B03F0C2
:1036F4001F030193039A019B22FA03F303F00103CE
:10370400002B14BF01230023DBB2184604B070471A
:1037140000B583B001900091009B1B68B3F1FF3F9B
:1037240009D0009B1B681846FFF7ACFF009B1B6881
:103734001846FFF770FF009B5B68B3F1FF3F05D0AD
:10374400009B5B6800211846FFF776FF019B1A680F
:10375400009B9B6919461046FFF7DDFE019B186824
:10376400009B597D009B1B7D1A46FFF7BFFE019B02
:103774001868009B1968009B5B681A46FFF74EFEA9
:10378400009B1B7D012B22D1009B9B68B3F1FF3F63
:1037940005D0009B9B6800211846FFF74DFF009B56
:1037A400DB68B3F1FF3F09D0009BDB681846FFF7E5
:1037B40069FF009BDB681846FFF72DFF019B186823
:1037C400009BD968009B9B681A46FFF764FE00BF04
:1037D40003B05DF804FB000000B583B001900B4614
:1037E4008DF80330019B1B684FF488711846FFF76E
:1037F400ABFD019B1B684FF490711846FFF7A4FDC5
:10380400019B1B684FF492711846FFF79DFD019BC5
:103814001B684FF4A2711846FFF796FD019B1B68C5
:103824004FF4AC711846FFF78FFD019B1B680F49DD
:103834001846FFF7BFFD019B1B681846FFF740FDC4
:1038440003461A469DF8033019461046FFF740FD1B
:10385400019B1B681846FFF733FD03461846FFF724
:1038640057FD00BF03B05DF804FB00BF1003420026
:1038740000B583B00190019B1B6808491846FFF707
:10388400A3FD019B1B681846FFF71AFD0346184663
:10389400FFF74CFD00BF03B05DF804FB10034200CA
:1038A40000B587B00190019B1B681846FFF7D3FD54
:1038B4000590019B1B681846FFF7D5FD0490019BFA
:1038C4001B681846FFF7D7FD0390019B1B68184639
:1038D400FFF7D9FD0290019B1B681846FFF7ADFD69
:1038E400019B1B681846FFF7E5FD059BB3F1FF3FFD
:1038F40002D00598FFF7B5FE049BB3F1FF3F02D059
:103904000498FFF7AEFE029BB3F1FF3F02D002988A
:10391400FFF7A7FE039BB3F1FF3F02D00398FFF725
:10392400A0FE00BF07B05DF804FB000000B587B03F
:10393400039002910192029B002B03D12B49CF20CB
:1039440000F0E6FB039B1B791A461346DB00134485
:103954009B00274A1344049300230593049B93F884
:103964002030002B03D008230593059B3AE0039BEA
:103974001A68039B1B7919461E4B53F821301946CC
:103984001046FDF74DFD0346002B03D0112305938C
:10399400059B27E002990398FFF7BAFE049B019A5E
:1039A4005A60029B1A69049B1A60049B5B68002B93
:1039B40005D0029B1B7F19460398FFF70DFF039B5D
:1039C4001B681846FFF718FD049B00229A61049BAC
:1039D4000022DA61049B00225A61049B012283F8CD
:1039E4002020059B184607B05DF804FB686E0000B4
:1039F40050010020986E000000B585B00190019B35
:103A04001B791A461346DB0013449B002A4A1344CD
:103A14000393019B1B680293039B5B68002B02D0FA
:103A24000198FFF725FF20210298FFF7B4FC039BC0
:103A34009B69002B08D04FF4A2710298FFF784FC15
:103A440004210298FFF744FD4FF4AC710298FFF78C
:103A54007BFC0C210298FFF73BFD00BF4FF4AC71D7
:103A64000298FFF786FC034683F00103DBB2002BC8
:103A7400F4D1039B9B69002B0AD04FF4A2710298E6
:103A8400FFF777FC034683F00103DBB2002BE5D19B
:103A94000298FFF7BAFC0198FFF702FF0298FDF7BE
:103AA400F9FC039B002283F82020039B00225A6028
:103AB40000BF05B05DF804FB5001002000B589B0DB
:103AC400039002910192039B1B791A461346DB0073
:103AD40013449B00574A13440593059B93F82030E5
:103AE400012B04D0544940F2531000F011FB029B07
:103AF400002B04D150494FF4AA7000F009FB019B3C
:103B0400002B04D14C4940F2551000F001FB039BFB
:103B14001B79002B03D1019BB3F5803F04D34649A5
:103B24004FF4AB7000F0F4FA0298FFF7BBFB0346C6
:103B340083F00103DBB2002B03D010230793079B10
:103B440073E0039800F07AF80346002B03D01123A6
:103B54000793079B69E0059B019A5A61059B029AAA
:103B64009A6000230793039B1B684FF490711846D7
:103B7400FFF7EAFB039B1B684FF4AC711846FFF791
:103B8400E3FB039B1868059B9968059B5B691A46D0
:103B9400FFF7CBFC039B1B6808211846FFF798FC32
:103BA400059B5B68002B3FD1039B1B684FF490710E
:103BB4001846FFF7DEFB03468DF81B30039B1B689A
:103BC4004FF4AC711846FFF7D4FB03468DF81A3056
:103BD4009DF81B3083F00103DBB2002B06D09DF867
:103BE4001A3083F00103DBB2002BDDD19DF81A30CB
:103BF400002B02D00F23079313E0039B1B680C21B7
:103C04001846FFF765FC00BF039B1B684FF4AC71BB
:103C14001846FFF7AEFB034683F00103DBB2002B2B
:103C2400F2D1059B00225A61079B184609B05DF842
:103C340004FB00BF50010020686E000082B00190B8
:103C4400019B1B791946084A0B46DB000B449B0079
:103C5400134414331B68002B14BF01230023DBB26D
:103C6400184602B0704700BF5001002000B589B06B
:103C740003900291019201238DF81030029B069368
:103C8400019B0593039B5B68039A116804AA104681
:103C9400984700BF09B05DF804FB00B587B00190F8
:103CA400009100238DF80830009B0493019B9B68CE
:103CB4000393019B00225A61019B5B68019A11687E
:103CC40002AA1046984700BF07B05DF804FB00B590
:103CD40089B0019000914FF492710198FFF749FB6C
:103CE4000346002B22D04FF492710198FFF72CFB6E
:103CF40002238DF808300198FFF770FB0346059303
:103D04000198FFF729FC03460493009BDB680393A7
:103D1400009B00229A61009B0022DA61009B5B6891
:103D2400009A116802AA104698473BE04FF4887144
:103D34000198FFF71EFB0346002B33D04FF4887124
:103D44000198FFF701FB0198FFF706FC0790009B21
:103D54009B69079A9A4225D1009BDB69002B17D0F7
:103D6400009BDB68069320210198FFF714FB009B5E
:103D7400DA69009B9A61009B1A69009BDA60009BD8
:103D84000022DA61069A07990098FFF76FFF09E0AD
:103D9400009B00229A61009BDB681A4607990098F1
:103DA400FFF764FF4FF4A2710198FFF7E2FA0346AC
:103DB400002B18D04FF4A2710198FFF7C5FA009BAD
:103DC4009B69002B0FD0009B00229A61009B00226C
:103DD400DA610198FFF7C0FB0146009BDB681A46D5
:103DE4000098FFF743FF4FF490710198FFF7C1FA71
:103DF4000346002B14D04FF490710198FFF7A4FAF6
:103E04000C210198FFF764FB009B5B69002B07D032
:103E14000198FFF799FB034619460098FFF73DFF09
:103E24004FF4AC710198FFF7A4FA0346002B10D0AD
:103E34004FF4AC710198FFF787FA009B5B69002B84
:103E440007D00198FFF780FB034619460098FFF757
:103E540024FF00BF09B05DF804FB000008B5034966
:103E64000348FFF734FF00BF08BD00BF5001002026
:103E74000020004086B003900291019201238DF846
:103E840017309DF81730204A039B13601E4A029B8B
:103E940053601D4A019B9360039B44F201029342C9
:103EA40012D0039B44F20202934220D1019B164A92
:103EB400D360154BDB681B68134A9361124BDB68B4
:103EC4005B68114AD36112E0019B0F4A13610E4BE8
:103ED4001B699B680C4A53610B4B1B691B680A4A9C
:103EE4009361094B1B695B68074AD36100BF72B6D3
:103EF40000BF00BF9DF81730DBB2002BFAD162B6C9
:103F040000BF00BF06B070477401002000B583B045
:103F140002900091019244F2010071466A4600F059
:103F240003F803B000BD00BF30B58BB00790069115
:103F3400059272B600BF02F095F801F057FE0346F1
:103F4400002BFAD1079B44F20102934216D0079B3F
:103F540044F2020293423ED1059B09932C4A2D4B15
:103F6400D31ADB081B0443F00100099B5B681A4663
:103F7400099B1B68284901F0E6FD39E0059B08937D
:103F8400234A244BD31ADB081B0443F00104089B87
:103F94009D68089B9B68184600F0E2FF034618469C
:103FA400089B5B681946089B1B68069A029201935A
:103FB400009103462A461949204601F0EEFD144AB1
:103FC400144BD31ADB081B0443F0010314491846AD
:103FD40001F09AFD0CE00E4A0E4BD31ADB081B04C9
:103FE40043F00103069A0F49184601F09BFD00BFF8
:103FF4000D4B1B6803F00103002B00D000BE059A93
:1040040006990798FFF736FF00BF0BB030BD00BF1D
:10401400B8680000886800009C6E0000B86E00005C
:10402400E06E0000F46E0000F0ED00E072B600BF38
:10403400034B1B680133024A136000BF704700BF83
:1040440094010020064B1B68013B054A1360044B96
:104054001B68002B01D162B600BF00BF704700BFD0
:104064009401002000B583B0019000F025F80346C8
:10407400012B03D00449432000F04AF8FFF7D6FF90
:1040840000BF03B05DF804FB4C6F000000B583B0C3
:1040940003468DF8073000F00FF80346012B03D0D8
:1040A4000449512000F034F8FFF7CCFF00BF03B0FF
:1040B4005DF804FB4C6F000084B0EFF305830193BB
:1040C400019BC3F308030393039B002B0DD1EFF370
:1040D40014830093009B0293029B03F00103002BC3
:1040E4000CBF01230023DBB200E00123184604B017
:1040F4007047000008B5044B1B68044A1268104658
:10410400984700BF08BD00BF980100209C01002013
:1041140000B585B003460091ADF80630BDF8063011
:104124000293009B039302AB1A46002144F202005F
:10413400FFF7FAFE00BF05B05DF804FB10B487B0CA
:1041440001900091019B009A53E8004F104643E808
:10415400000191F0000FF7D1059404900391059BA1
:10416400184607B05DF8044B704710B487B001904F
:104174000091019B009A53E8004F44EA020043E88F
:10418400000191F0000FF6D1059404900391049B73
:10419400184607B05DF8044B704710B487B001901F
:1041A4000091019B009A53E8004F04EA020043E89F
:1041B400000191F0000FF6D1059404900391059B42
:1041C400184607B05DF8044B704710B487B00190EF
:1041D4000091019B009A53E8004F04EB020043E86E
:1041E400000191F0000FF6D1059404900391049B13
:1041F400184607B05DF8044B704710B487B00190BF
:104204000091019B009A53E8004FA4EB020043E89D
:10421400000191F0000FF6D1059404900391049BE2
:10422400184607B05DF8044B704700B583B00190A1
:1042340001210198FFF799FF0346184603B05DF882
:1042440004FB00B583B0019000210198FFF7A5FF9E
:104254000346184603B05DF804FB000000B583B0C4
:1042640001900B468DF80330019B002B03D10849C4
:10427400E820FFF74DFF019BDA689DF803300199B0
:10428400098A01FB03F31344184603B05DF804FBE9
:10429400846F000000B583B001900091019B002B56
:1042A40003D10849F520FFF733FF009B019AD26838
:1042B4009B1A019A128AB3FBF2F3DBB2184603B0DD
:1042C4005DF804FB846F000000B585B00190019B8C
:1042D400002B01D10E234CE0019B1B68002B03D162
:1042E4002649FF20FFF714FF019B5B68002B04D1D4
:1042F40022494FF48070FFF70BFF019B9B68002B52
:1043040004D11E4940F20110FFF702FF019BDB6854
:10431400002B04D119494FF48170FFF7F9FE019B7A
:104324001B8A002B04D1154940F20310FFF7F0FE5D
:10433400019B9A68019B5B68D31A8DF80F30019B2F
:104344001B68019A52681A6007E0019B1A68136897
:10435400591C11609DF80F201A709DF80F305A1ED9
:104364008DF80F20002BF0D1019B1B6800221A71DD
:104374000023184605B05DF804FB00BF846F0000FD
:1043840000B585B00190019B002B04D11C494FF46A
:104394009270FFF7BDFE002303930020FFF762FE37
:1043A400019B1B681A68019B5B689A421FD9019B99
:1043B4001B681A68013A1A601B681B781946019831
:1043C400FFF74CFF0390019B9A68019B1B681B68D5
:1043D400D31A8DF80B30019B1B681B799DF80B20B9
:1043E4009A4204D9019B1B689DF80B201A71002086
:1043F400FFF74CFE039B184605B05DF804FB00BFB5
:10440400846F000010B584B001900091019B002BD3
:1044140004D1114940F24710FFF77AFE009B002BAC
:1044240004D10D494FF4A470FFF772FE009B03936F
:104434000020FFF717FE019B1B681C68621C1A60B2
:1044440003990198FFF726FF034623700020FFF726
:104454001DFE00BF04B010BD846F000000B583B022
:104464000190019B002B03D10C493120FFF750FE32
:10447400019B9B68002B0CD0019B5B69019A10691E
:10448400019A1168019A92689847019B00229A60E8
:1044940000E000BF03B05DF804FB00BFB46F000090
:1044A4000EB400B584B00190019B002B03D11849D0
:1044B4004220FFF72DFE019B5B69002B03D11449B9
:1044C4004320FFF725FE019B1B68002B03D11049F5
:1044D4004420FFF71DFE019B5B68002B03D10C49B0
:1044E4004520FFF715FE059B002B0AD000230393FC
:1044F40006AB039303AB1A460599019800F0B8F98B
:1045040000E000BF04B05DF804EB03B0704700BFE7
:10451400B46F000000B583B001900B468DF80330F2
:104524009DF803300A2B03D10D210198FFF7F2FF08
:10453400019B1A68019B9B68581C0199886013446D
:104544009DF803201A70019B9A68019B5B689A424C
:1045540002D30198FFF782FF00BF03B05DF804FBAC
:1045640000B587B003900291019200930023059354
:10457400009B03F00103002B24D00BE0029B0133CA
:104584000293059B013305939DF813301946039854
:10459400FFF7C0FF029B1B788DF813309DF8133092
:1045A400002BEBD106E0019B013B019320210398F2
:1045B400FFF7B0FF019A059B9A422ED9019B002B6D
:1045C400F1D12AE0029B002B0BD0029802F075F87F
:1045D400059006E0019B013B019320210398FFF71E
:1045E40099FF019A059B9A420FD9019B002BF1D1A7
:1045F4000BE0029B01330293059B013305939DF865
:10460400133019460398FFF785FF029B1B788DF83A
:1046140013309DF81330002BEBD100BF07B05DF8C9
:1046240004FB000000B589B003900291019200934D
:10463400029B07930123069307E0079A019BB2FBB1
:10464400F3F30793069B01330693079A019B9A425F
:10465400F3D2009A069B9A4201D9009B06930B9BC6
:1046640003F00103002B22D10A9B002B1FD00B9BCC
:1046740003F00203002B06D0009B002B03D1302350
:104684008DF8173002E020238DF8173008E00A9BDC
:10469400013B0A939DF8173019460398FFF73AFF38
:1046A4000A9B002B03D0069A0A9B9A42EFD301235C
:1046B4000793009B012B03D9009B013B009309E066
:1046C400029A079BB2FBF3F30493049A019B9A4268
:1046D40000D205E0079B019A02FB03F30793E8E786
:1046E400029A079BB2FBF3F30493049B079A02FB21
:1046F40003F3029AD31A0293154A049B13441B78BA
:1047040019460398FFF706FF079A019BB2FBF3F3E0
:104714000793079B002BE3D10B9B03F00103002BB2
:1047240011D00A9B002B0ED006E00A9B013B0A9392
:1047340020210398FFF7EEFE0A9B002B03D0069A74
:104744000A9B9A42F1D300BF09B05DF804FB00BF95
:104754005070000000B589B0059004910392029353
:10476400049B002BB8BF5B4206930123079307E029
:10477400039B069A92FBF3F30693079B013307937B
:10478400039B069A9A42F3DA029A079B9A4201D94A
:10479400029B07930A9B002B0AD0049B002B04DB8B
:1047A4000B9B03F00403002B02D00A9B013B0A93EA
:1047B4000B9B03F00203002B02D0029B002B16D0AC
:1047C4000B9B03F00103002B11D10A9B002B0ED08D
:1047D40006E00A9B013B0A9320210598FFF79AFE05
:1047E4000A9B002B03D0079A0A9B9A42F1D3049B9D
:1047F400002B07DA049B5B4204932D210598FFF7F5
:1048040089FE08E00B9B03F00403002B03D02B214B
:104814000598FFF77FFE0B9B03F00203002B19D0D2
:104824000B9B03F00103002B14D1029B002B11D12D
:104834000A9B002B0ED006E00A9B013B0A93302111
:104844000598FFF767FE0A9B002B03D0079A0A9B83
:104854009A42F1D304990B9B01930A9B0093029B08
:10486400039A0598FFF7DEFE00BF09B05DF804FB6C
:1048740000B58FB0059004910392059B002B04D1E1
:10488400AD4940F25220FFF743FC059B5B69002BC6
:1048940004D1A9494FF41570FFF73AFC059B1B6836
:1048A400002B04D1A44940F25520FFF731FC059BAD
:1048B4005B68002B04D1A04940F25620FFF728FC86
:1048C400049B002B00F09381049B1B788DF83730F8
:1048D400049B013304939DF83730002B00F07E8154
:1048E4009DF83730252B40F06D8100230A93012376
:1048F4000C93049B1B788DF837309DF83730302BA0
:104904000DD0302B1BDC2B2B11D02D2B17D10A9B58
:1049140043F001030A93049B0133049312E00A9BBE
:1049240043F002030A93049B013304930AE00A9BB5
:1049340043F004030A93049B0133049302E000232D
:104944000C9300BF0C9B002BD3D1002309939DF83B
:1049540037302A2B0CD1039B1B68191D039A116055
:104964001B68099A13440993049B013304931AE0C6
:10497400049B1B788DF837309DF837302F2B12D9D4
:104984009DF83730392B0ED8049B01330493099AD0
:1049940013469B0013445B001A469DF837301344BA
:1049A400303B0993D3E700230B93049B1B788DF8CA
:1049B40037309DF837302E2B1DD1049B01330493DF
:1049C400049B1B788DF837309DF837302F2B12D984
:1049D4009DF83730392B0ED8049B013304930B9A7E
:1049E40013469B0013445B001A469DF8373013446A
:1049F400303B0B93E4E7049B1B788DF837309DF82C
:104A040037306C2B03D09DF83730682B07D1049BCB
:104A140001330493049B1B788DF83730EFE79DF83E
:104A24003730252B00F0C480252BC0F2C680782BAC
:104A340000F3C380582BC0F2C080583B202B00F2F7
:104A4400BC8001A252F823F0414B0000BF4B000090
:104A5400BF4B0000BF4B0000BF4B0000BF4B00002A
:104A6400BF4B0000BF4B0000BF4B0000BF4B00001A
:104A7400BF4B0000D14A0000F34A0000BF4B0000C6
:104A8400BF4B0000BF4B0000BF4B0000F34A0000C7
:104A9400BF4B0000BF4B0000BF4B0000BF4B0000EA
:104AA400BF4B0000BF4B0000814B0000BF4B000018
:104AB400BF4B0000654B0000BF4B0000174B0000CC
:104AC400BF4B0000BF4B0000414B0000039B1B6821
:104AD400191D039A11601B680C930C9B8DF81F30F1
:104AE4009DF81F3019460598FFF714FD66E0039BF7
:104AF4001B68191D039A11601B680C930A9B019390
:104B0400099B00930B9B0A220C990598FFF722FE40
:104B140054E0039B1B68191D039A11601B680C93D6
:104B24000C990A9B0193099B00930B9B0A220598FD
:104B3400FFF778FD42E000BF20700000039B1B6874
:104B4400191D039A11601B680C930C990A9B01931D
:104B5400099B00930B9B10220598FFF763FD2DE042
:104B6400039B1B68191D039A11601B6808930A9B19
:104B7400099A08990598FFF7F3FC1FE0039B1B684B
:104B8400191D039A11601B680C9330210598FFF7D7
:104B9400C1FC78210598FFF7BDFC0C990023019313
:104BA40008230093082310220598FFF73BFD05E036
:104BB40025210598FFF7AEFC00E000BF049B0133FC
:104BC400049305E09DF8373019460598FFF7A2FCD9
:104BD400049B1B78002B7FF477AE00E000BF059B9D
:104BE4001B7B002B04D00598FFF738FC00E000BFC6
:104BF4000FB05DF804FB00BF00B583B001900198CD
:104C0400FFF762FB0346184603B05DF804FB00B5EA
:104C14008BB001900091019B1B8A043B0793009A7F
:104C2400079B1344DA1C079BB2FBF3F38DF81B308C
:104C34000198FFF7A5FB0590059B002B01D10023EC
:104C440038E0059B00221A71059B01225A71079BCB
:104C54009AB2059BDA80059B09939DF81B30013BB2
:104C64000493099B019A1A60002308931DE001989C
:104C7400FFF786FB0390039B002B0ED0059B5B790B
:104C84000133DAB2059B5A71099B039A1A60039B9C
:104C9400019A1A60039B099304E0059800F00EF84A
:104CA400002307E0089B01330893089A049B9A4267
:104CB400DDD3059B18460BB05DF804FB00B58BB043
:104CC4000190019B0793079B5B798DF81B30019B37
:104CD40008939DF81B30013B05930023099305E0DD
:104CE400089B1B680893099B01330993099A059B48
:104CF4009A42F5D3089B1B680493019B08930023F5
:104D040009930BE0089B1B68039308990498FFF729
:104D140079FB039B0893099B013309939DF81B308E
:104D2400099A9A42EED300BF00BF0BB05DF804FBB2
:104D340000B585B00190019B0393039B04330121CB
:104D44001846FFF742FA00BF05B05DF804FB00B552
:104D540087B00190019B0593059B043301211846FC
:104D6400FFF74BFA0346039303AB0493049B1B78AE
:104D7400002B02D10198FFF7A1FF00BF07B05DF837
:104D840004FB000000B591B00390029101920093DE
:104D9400039B002B03D14349B620FFF7B9F9039BCA
:104DA4000993039B0F93099BDB881A46099B5B7944
:104DB40002FB03F3043B0893009A089B9A4203D333
:104DC4003849C420FFF7A4F9099BDB880793009BAB
:104DD4001A1D079BB2FBF3F30E93009B0433079A4F
:104DE400B3FBF2F2079901FB02F29B1A0D93019BAC
:104DF4001A68009B1344089A9A4203D2089A009BAB
:104E0400D31A01E0019B1B680C93019B0C9A1A6056
:104E140005E00F9B1B680F930E9B013B0E930E9BAB
:104E2400002BF6D100230B93079A0D9BD31A0A93F8
:104E34000A9A0C9B934228BF13460A932AE0029ACB
:104E44000B9B134406930F9A0D9B13440433059351
:104E54009DF84830002B05D00A9A0599069801F070
:104E640043FC04E00A9A0699059801F03DFC0023EE
:104E74000D930F9B1B680F930C9A0A9BD31A0C93E8
:104E84000B9A0A9B13440B93079A0C9B934228BFDB
:104E940013460A930C9B002BD1D100BF00BF11B065
:104EA4005DF804FB6070000000B589B005900491C2
:104EB40003920293039B079307AA00230093029B88
:104EC40004990598FFF75EFF079B039A9A4203D063
:104ED4000349F620FFF71CF900BF09B05DF804FB95
:104EE4006070000000B589B00590049103920293AC
:104EF400039B079307AA01230093029B0499059837
:104F0400FFF740FF079B039A9A4204D004494FF4E9
:104F14008070FFF7FDF800BF09B05DF804FB00BF27
:104F24006070000082B00190019B9B6800229A602F
:104F3400019B9B6800221A61019B9B6800225A61B5
:104F4400019B9B680022DA60019B9B6800225A60E7
:104F5400019B9B6800221A6000BF02B070470000EA
:104F640000B585B00190019800F00EF80390039B02
:104F7400002B01D0039B00E0024B184605B05DF8FE
:104F840004FB00BF8871000086B00190164B0593A6
:104F9400164B04931FE0049A059BD31ADB10DA0F17
:104FA40013445B10DB00059A13440393039B1B68B3
:104FB4000293029A019B9A4202D9039B04930AE04A
:104FC400029A019B9A4203D2039B0833059302E0A1
:104FD400039B5B6804E0059A049B9A42DBD300239D
:104FE400184606B0704700BF5C7500007476000078
:104FF40000B585B00190019B002B0AD0074B43F00C
:1050040001030393019B9B010293039B029898471E
:1050140000E000BF05B05DF804FB00BF807600002F
:1050240000B583B00190019B002B0AD04FF47A7035
:10503400FFF7DEFF019B013B0193019B002BF5D1A0
:1050440000E000BF03B05DF804FB08B501F024FBE9
:1050540000BF08BD00B589B0039002910192019B85
:10506400002B33D00023079303230693029A079B54
:105074001344019A1946002001F0BEFA0590079ADC
:10508400059B13440793019A059BD31A0193059B2F
:10509400002B13D10F4B1B7883F00103DBB2002BE1
:1050A40013D10120FFF7BCFF069B013B0693069B2F
:1050B400002B03D1074B00221A7007E0054B012295
:1050C4001A70019B002BD1D100E000BF00BF09B0D2
:1050D4005DF804FBA401002000B585B003900291A3
:1050E400054B00934023054A0299039800F012F8F7
:1050F40000BF05B05DF804FB59500000A801002072
:1051040082B0019000BF02B0704782B0019000BF2E
:1051140002B0704700B5A1B00590049103920293C8
:105124000498FFF705FE039B1593029B1693002337
:10513400179300238DF8603000231993229B1A9350
:1051440000231F930FA91F9B08220498FFF7CAFE90
:1051540008231F93119B1293BDF84030ADF84C30D7
:10516400BDF84230ADF84E3000238DF851309DF833
:105174003C3003F00303DBB2012B26D10F9BC3F3B6
:1051840095231C939DF83C30C3F3C203DBB28DF826
:105194005030BDF83C30C3F38313DBB21B931B9B2D
:1051A4009A0009A91F9B0498FFF79CFE1B9B9B0078
:1051B4001F9A13441F9312AA09A915AB009313460F
:1051C4001B9A1C9800F0FAFF2FE09DF83C3003F086
:1051D4000303DBB2022B28D1BDF83E30C3F389139D
:1051E4009BB21E939DF83C30C3F3C203DBB28DF82F
:1051F40050301E9B082B28BF08231D9307A91F9B13
:105204001D9A0498FFF76EFE1F9A1D9B13441F936B
:105214001E9A1D9BD31A1E9315AB12AA07A81D999B
:1052240001F06EF81E9B002BE3D10498FFF78FFD6D
:1052340000BF21B05DF804FB00B583B00190019B71
:105244001B781A460C4B9B5C002B05D0019B043346
:105254001846FEF7D1FB0BE0019B1B781A46064B60
:105264009B5C002B04D1019B0C331846FDF74CFDCD
:1052740000BF03B05DF804FBE000002000B587B078
:105284000390029113468DF8073000230593039B86
:105294001B781A46114B9B5C002B09D0039B0433EB
:1052A4009DF8072002991846FEF708FC05900FE0C8
:1052B400039B1B781A46094B9B5C002B08D1039B6C
:1052C4000C339DF8072002991846FDF795FD0590CB
:1052D400059B184607B05DF804FB00BFE000002002
:1052E40082B001900091034B01221A7000BF02B0FA
:1052F400704700BF2802002030B58DB003468DF8FA
:1053040007301A4B02AC1D460FCD0FC495E80F00B1
:1053140084E80F00062302934FF0FF3303934FF00A
:10532400FF3304934FF0FF3305934FF0EB7308936F
:105334009DF80730002B01D00D4A00E0002202AB9B
:1053440019460C48FBF778FF0B900B9B0A930A9BBA
:10535400002B04D0084A43210A98FEF7D7FD074AD8
:105364009DF80730137000BF0DB030BDC476000047
:10537400E552000008000020887600002902002081
:1053840000B583B001238DF807309DF80730184627
:10539400FFF7B2FF00BF03B05DF804FB00B589B0AE
:1053A400039002910192019B8DF81F30124B002251
:1053B4001A709DF81F301A4602991048FFF75EFFD5
:1053C4000690069B0593059B002B04D00C4A5321A1
:1053D4000598FEF79BFD00BF0A4B1B78002B07D0F6
:1053E400054B1B78DBB283F00103DBB2002BF3D156
:1053F40000BF09B05DF804FB28020020080000206B
:10540400887600002902002000B585B0039002913F
:10541400054B00934023054A02990398FFF77AFE4F
:1054240000BF05B05DF804FBA1530000E8010020B3
:1054340082B0019000BF02B07047000000B583B095
:1054440001900548FFF7F8FE0020FFF755FF00BF65
:1054540003B05DF804FB00BF0800002082B0019097
:10546400019BDB6801225A7100BF02B07047000043
:1054740000B583B04FF0FF330193FFF7E6FD04213D
:10548400114800F0B7FD0190019B002B03DA0F498E
:105494004120FEF73DFE0C48FFF7E0FFFFF770FFE9
:1054A40004210B4800F0A6FD0190019B002B03DAB8
:1054B40006494820FEF72CFE0548FFF7CFFF00BF42
:1054C40003B05DF804FB00BFE0680000147700003F
:1054D400F068000000B583B001900091019B1B6847
:1054E4001B6800990198984700BF03B05DF804FB5E
:1054F40000B583B00190019B1B685B6801989847D5
:1055040000BF03B05DF804FB00B583B00190019BBC
:105514001B689B680198984700BF03B05DF804FBC3
:1055240082B001900B468DF80330019BDB689DF837
:1055340003201A7100BF02B0704782B00190019B32
:10554400DB681B79184602B0704782B00190019B5A
:10555400DB6801225A7100BF02B0704782B001902B
:10556400019BDB685B79184602B0704700B585B0D3
:10557400019000910C4B00221A700C48FFF73CFB81
:105584000390039B002B01D0039B08E00848FFF71E
:10559400C9FC084A084BD31ADB08029300231846B7
:1055A40005B05DF804FB00BF94030020006900000F
:1055B40054770000E068000088680000024A034B4A
:1055C400D31ADB0818467047E068000088680000BA
:1055D40000B587B001900B468DF803309DF8033079
:1055E400002B1FD0FFF7EAFF04900023059313E07C
:1055F400059B9B000E4A13440393039B1B881A4686
:10560400019B1B689A4204D1019B059A1A600023EE
:1056140009E0059B01330593059A049B9A42E7D35D
:10562400052300E00023184607B05DF804FB00BF23
:105634000000002000B585B001900B468DF80330C2
:105644009DF8032001AB11461846FFF7C1FF03463E
:10565400002B07D1019BDB00054A13440393039BF2
:105664001B6800E00023184605B05DF804FB00BF8A
:105674008868000084B001900B468DF80330019BCC
:10568400DB00174A134402939DF80330013B032BBC
:105694001CD801A252F823F0AD560000B556000004
:1056A400BD560000C756000002238DF80F3011E0EC
:1056B40004238DF80F300DE0029B1B798DF80F3019
:1056C40008E0029B5B798DF80F3003E000238DF82E
:1056D4000F3000BF9DF80F30184604B0704700BF6C
:1056E4008868000084B00190009100238DF80F3089
:1056F400019B1B7803F00403DBB2002B24D0019B35
:105704001B78C3F30103DBB2012B02D0022B0CD0B4
:1057140017E0009B1B68019A1288C2F38312D2B26D
:1057240013449A1C009B1A600BE0009B1B68019AAF
:105734005288C2F3891292B213449A1C009B1A60D5
:1057440000BF01238DF80F309DF80F30184604B0C8
:105754007047000000B58BB00023ADF826303E48FA
:10576400FEF763FD3D48FEF760FD3D4B9B680493E7
:105774003C4B1B680693049A069B134002339B0020
:10578400374A13440433089304AB19460898FFF7C7
:10579400A9FF0346002B09D0049A069B1340023349
:1057A4009B002F4A134404330893EDE700BF002302
:1057B400079311E0049B5A1C0492069A1340079A1B
:1057C400920001A90A44264902339B000B445B68FA
:1057D4001360079B01330793079B012BEAD99DF8BC
:1057E4000430C3F30103DBB2012B10D0022B1CD114
:1057F400BDF80A30ADF82630BDF80630C3F389137E
:105804009BB203339A08049B1344049313E0BDF83A
:105814000A30ADF82630BDF80430C3F38313DBB28D
:105824001A46049B1344049305E00F494FF4C270D5
:10583400FEF76EFC00BF0948FEF703FD0590059BCB
:10584400002B02D0049B064A9360BDF8263018460C
:105854000BB05DF804FB00BFAC070020A8070020D4
:10586400940300202C0000206477000000B585B06C
:1058740000210748FEF762FC0390039B0293029BFE
:1058840083F310030193019B184605B05DF804FBF4
:10589400B007002000B589B00390029101920093F3
:1058A400039B1B0C0793FFF7E1FF0690FFF786FEAF
:1058B4000246079B934204D3214940F2A910FEF704
:1058C40027FC069B1904009B5A1C0A9B1340079A49
:1058D4000A431C4902339B000B445A60009A0A9BFA
:1058E400134002339B00174A134404330593039B6C
:1058F40003F00703D9B2059A137861F3C503137053
:10590400019B03F00F03D9B2059A138861F389133D
:105914001380029BC3F31501059A136861F39F2357
:105924001360059A1378012161F301031370059A3A
:10593400137823F00403137000BF09B05DF804FB6F
:10594400647700009403002000BF704700B58BB05B
:105954000390029113468DF80730039B023308939A
:1059640001238DF81F300020FEF77CFB3E4B5A6864
:10597400029B1A603D4B1A683B4B99683A4B5B6833
:10598400CB1A13440133099314E001213848FEF77C
:105994001CFCFFF7DFFE059005993548FEF715FC62
:1059A400324B1A68304B99682F4B5B68CB1A1344FF
:1059B40001330993089A099B9A42E6D89DF81F304F
:1059C400002B48D0002304939DF80730002B17D0F8
:1059D4009DF81030012262F301038DF810309DF818
:1059E400103043F004038DF81030039B03F00F03D1
:1059F400DAB2BDF8103062F38913ADF8103016E056
:105A04009DF81030022262F301038DF810309DF8E6
:105A1400103043F004038DF81030039BC3F30903E3
:105A24009AB2BDF8123062F38F13ADF812300E4BF8
:105A34005A680E4B1B68134002339B000A4A1344F6
:105A440004330693049A069B1A60074B5A68089B12
:105A54001344054A53600020FEF718FB9DF81F30DD
:105A640018460BB05DF804FB940300202C000020C2
:105A7400B007002000B58BB0059004910392029307
:105A84001F4B1B68079306AB012219460298FFF7C8
:105A94005DFF0346002B24D0069B023309930023A9
:105AA400089311E0089B9B00039A1A44099B591C14
:105AB400099107990B401268124902339B000B4469
:105AC4005A60089B01330893089A029B9A42E9D3CF
:105AD400069A079B00931346029A04990598FFF7C8
